:020000040800F2
:1000000058050020D50000085F1500089D14000861
:1000100000000000000000000000000000000000E0
:100020000000000000000000000000003116000881
:10003000000000000000000011160008351600083E
:10004000E7000008D9150008E7000008E7000008ED
:10005000E7000008E7000008EF010008FF010008C2
:1000600000000000E7000008E700000800000000B2
:10007000E7000008E7000008E700000800000000B3
:10008000E7000008E700000800000000E7000008A3
:1000900000000000E7000008E7000008E700000893
:1000A00000000000E7000008E7000008E700000883
:1000B000E700000800000000E70000080000000062
:1000C0000348854600F04EF80048004789010008C3
:1000D000580500200448804704480047FEE7FEE733
:1000E000FEE7FEE7FEE7FEE7CD160008C1000008C8
:1000F00030B50B46014600202022012409E00D46C0
:10010000D5409D4205D31D469540491B2546954047
:1001100040191546521E002DF1DC30BD03460B433D
:100120009B0703D009E008C9121F08C0042AFAD2AD
:1001300003E00B780370401C491C521EF9D2704733
:10014000D2B201E00270401C491EFBD2704700226F
:10015000F6E710B513460A4604461946FFF7F0FFC6
:10016000204610BD064C0125064E05E0E36807CC8D
:100170002B430C3C98471034B442F7D3FFF7A4FF4D
:10018000441C0008641C000870B50125ED0600241D
:1001900006E0A0002858A100064A5050601CC4B2D6
:1001A000302CF6DB012040070349886001F0A8FCF1
:1001B000002070BD0000002000ED00E000B587B019
:1001C00000F032FA00F016FA08200090FF2000023A
:1001D00005907F2040020690684600F0E1F800F0AC
:1001E000CDF800F0F5F900F0E7F907B000BD10B563
:1001F000042000F035FA082000F032FA10BD10B5E6
:100200000120800300F02CFA10BD00BFFEE70000C3
:100210000448006AC1B2AA2901D1AA207047084641
:10022000FCE70000002002400449096A090A0902AB
:10023000FF221202114008467047000000200240D1
:1002400030B5064C236AFF2404431D46A5432B46C4
:100250001C460C431443014D2C6230BD002002406B
:1002600070B5044600F0F0FA051905E000F0ECFA6C
:10027000A84201D3032070BD06480069012109048A
:100280000840000C0028F1D1034802490861002011
:10029000F1E70000002002401180000070B586B038
:1002A00005460E4614460B2000072818002807D0E4
:1002B00001218902401A12D08900401A2DD11DE077
:1002C00000BF2D48406B012108432B494863084675
:1002D000406BC007C00F009000BF00BF20E000BF10
:1002E0002548406B02210843234948630846406B78
:1002F00002210840009000BF00BF11E000BF1E486F
:10030000406B202108431C4948630846406B20216C
:100310000840009000BF00BF02E0FFF776FF00BF7B
:1003200000BF01960020039002200490230001F0FA
:10033000C9FB05090C0411141A00002002900220C8
:10034000039011E0012002900EE0002002900120B5
:10035000039009E00020029006E002200290039042
:100360000D20059000E000BF00BF01A9284600F065
:1003700087F906B070BD0000001002400120074957
:100380004969C2071143054A516111464969C90FBC
:10039000C907002900D0002070470000002002405B
:1003A00070B50446012500BF7E480078012801D1C0
:1003B000022070BD01207B49087000BF00BF7A4950
:1003C0004968072252031140480B784909688200A6
:1003D000774B9A581278914244D174494968820007
:1003E0009A581268D201D20D91423BD16F490969E6
:1003F00082009A5812881204120E914232D16B492F
:10040000896882009A58127991422BD16749C9684C
:1004100082009A5852685201520D914222D163498A
:10042000496982009A589268D203D20B914219D13D
:100430005E49896982009A58D268D203D20B9142F0
:1004400010D15A49C96982009A58128A92B29142CF
:1004500008D15649096A82009A5812699200920C92
:10046000914244D000BF8100514A515809784F4A07
:10047000116081004E4A51580968C901C90D4B4AA3
:10048000516081004A4A515809880904090E474AB7
:1004900011618100464A51580979444A91608100AE
:1004A000434A515849684901490D404AD160810089
:1004B0003F4A51588968C903C90B3C4A51618100C0
:1004C0003B4A5158C968C903C90B384A9161810038
:1004D000374A5158098A89B2344AD1618100344A75
:1004E000515809698900890C304A116200BF00BF68
:1004F0002078C007C00F002804D0A088C04380B275
:100500002C49C862022120680840002805D0E16813
:100510000902A0680843274948620C212068084066
:100520000C2805D12269A1696069FFF789FE1AE0EC
:10053000042120680840002808D0FFF775FE064611
:10054000314630462269FFF77BFE0CE00821206827
:100550000840002807D0FFF75BFE06463246A16937
:100560006069FFF76DFE13484069012149040843A3
:1005700010494861084640690121090608430D49B0
:100580004861FF200949803908607D20C000FFF7DD
:1005900067FE054600BF00200249087000BF2846DC
:1005A00007E7000040010020001002400021024047
:1005B000101C000800200240044840690121C906BF
:1005C00008430249486101207047000000200240B2
:1005D00001200749496982071143054A51611146C3
:1005E000496982071140002900D0002070470000AF
:1005F0000020024001200949496982071140002971
:100600000BD00749054AD1600649D16011464969B6
:1006100082071140002900D10020704700200240CD
:100620003B2A19087F6E5D4C002009494969C90FB2
:10063000C90700290BD00749054A91600649916016
:1006400011464969C90FC907002900D00120704728
:100650000020024023016745AB89EFCD70470000C1
:1006600010B504460548C0682040002804D003485F
:10067000C4602046FFF7F2FF10BD000000180240E2
:1006800070B503460022CBE0012696400C6834404A
:10069000002C71D04D68022D02D04D68122D15D15D
:1006A000D508AE001D462035A8595507EE0E0F257A
:1006B000B5400646AE4330465607F60E0D69B540C6
:1006C0002843D508AD001E462036705118685600E4
:1006D0000325B5400646AE4330460D79AD07AD0F54
:1006E0005600B540284318604D68012D08D04D686C
:1006F000022D05D04D68112D02D04D68122D18D154
:10070000986856000325B5400646AE43304656006D
:10071000CD68B54028439860586801259540064645
:10072000AE43304610264D6835402D09954028438C
:100730005860D86856000325B5400646AE4330469B
:1007400056008D68B5402843D860012636074D68AD
:100750003540B54263D1354D9608B600A859950786
:10076000EE0E0F25B5400646AE43304605252D0753
:10077000AB4202D1002506E051E02D4DAB4201D144
:10078000012500E002259607F60EB5402843274DC7
:100790009608B600A851254D203528680546A54382
:1007A0002846012636044D683540B54202D105463B
:1007B000254328461D4D2035286068680546A54319
:1007C0002846012676044D683540B54202D10546DB
:1007D00025432846154D20356860144D603D286836
:1007E0000546A5432846012636054D683540B542E5
:1007F00002D10546254328460C4D603D28606868B7
:100800000546A5432846012676054D683540B54284
:1008100002D1054625432846044D603D6860521CC0
:100820000D68D540002D00D02EE770BD6018024045
:1008300000040050024613690B40002B01D0012038
:1008400000E0002070470000014800687047000089
:10085000C80000200348006803490968401801499E
:1008600008607047C8000020D000002010B50024A8
:10087000032000F009F8002801D0012401E000F075
:1008800033F8204610BD0000F8B504460025134893
:10089000006800281ED0114801687D20C000FFF7C5
:1008A00027FC074639460E480068FFF721FC06463C
:1008B00000F0AEFC00280BD1042C07D20022214608
:1008C000401E00F033F80748046004E0012502E010
:1008D000012500E001252846F8BD0000D0000020D9
:1008E000C0000020CC00002008B500BF0E48006802
:1008F000012108430C49086008460068C007C00F82
:10090000009000BF00BF00BF07484038C06B89059A
:10091000084305494039C8630846C06B09040840CC
:10092000009000BF00BF08BD4010024070B50446F3
:100930000D4616462946204600F012FE70BD70474F
:1009400010B50648C068012109040840002804D0F9
:1009500008460249C860FFF7F2FF10BD00180240C8
:1009600070B504460D46002C01D1012070BD6B48C6
:100970000068C007C00FA84218D268480068400845
:100980004000284365490860FFF75EFF064607E020
:10099000FFF75AFF801B6249884201D90320E5E72F
:1009A0005E480068C007C00FA842F1D1022120684C
:1009B0000840022815D1042120680840042807D1E6
:1009C00058488068072109038843401855498860C2
:1009D000544880680F2109028843A168084351499F
:1009E00088602078C007C00F002854D060680128B4
:1009F00008D14C48006801214904084000282ED144
:100A00000120B3E76068002808D14648006801214A
:100A100089020840002822D10120A7E76068022847
:100A200008D140480068012149060840002816D135
:100A300001209BE76068042808D13A484030C0692B
:100A40000221084000280AD101208FE735484030B4
:100A5000006A02210840002801D1012086E73148C0
:100A60008068C008C000616808432E498860FFF7AD
:100A7000EBFE064607E0FFF7E7FE801B28498842A9
:100A800001D9032072E7274880683821084061684F
:100A9000C9008842EFD121480068C007C00FA842B2
:100AA00018D91E4800684008400028431B490860C8
:100AB000FFF7CAFE064607E0FFF7C6FE801B18498F
:100AC000884201D9032051E714480068C007C00FCD
:100AD000A842F1D1042120680840042808D1114817
:100AE0008068072109038843E16808430D4988604D
:100AF00000F026F80B4989680F2212021140090AFA
:100B00008900094A515CC906C90EC84007490860F6
:100B100007480068FFF7B8FE28E700000020024001
:100B20008813000000100240901B0008C000002045
:100B3000CC0000200148006870470000C000002081
:100B4000F0B585B0142230496846FFF7E7FA2F4820
:100B5000806838210840002817D12C480068090215
:100B60000840C10A01268E402848406807214903F1
:100B70000840450B042D00D90025A9006A465058AD
:100B80003146FFF7B5FA04463BE02048806838213B
:100B90000840082801D11E4C33E01C4880683821E9
:100BA000084010281BD11948C068C707FF0F002F45
:100BB00003D0012F0FD1174C10E0144840680721D3
:100BC00049030840450B042D00D90025A8006946BB
:100BD0000858440002E00498440000BF11E00B48AC
:100BE000806838210840202801D1840209E00748A4
:100BF000806838210840182802D10124E40300E06D
:100C00000024204605B0F0BD301C00080010024052
:100C100000366E01006CDC02FEB50446002C01D1EA
:100C20000120FEBD2078C007C00F00286DD0F54818
:100C3000866838210E40C068C707FF0F102E01D10B
:100C4000012F01D0082E0BD1EE4800680121490484
:100C5000084000286CD06068002869D10120E0E7D6
:100C6000606800280DD0A068002808D0E548006919
:100C70000C218843A1680843E249086101E0012092
:100C8000CFE700BF012109046068884205D1DD4833
:100C900000680843DB49086021E005210904606819
:100CA00088420ED1D7480068012189040843D549FC
:100CB000086008460068012109040843D14908601A
:100CC0000DE0D0480068012109048843CD4908603F
:100CD00008460068012189048843CA49086000BFAA
:100CE0006068002812D0FFF7AFFD054606E0FFF769
:100CF000ABFD401BC82801D9032092E7C14800681A
:100D00000121490408400028F1D011E0FFF79CFDC3
:100D1000054606E0FFF798FD401BC82801D90320CF
:100D20007FE7B84800680121490408400028F1D154
:100D3000022120680840022874D1B2488068382116
:100D400008400646AF48C068C707FF0F102E01D104
:100D5000002F01D0002E48D1AA4800680121890245
:100D60000840002804D06069002801D1012058E71C
:100D7000A4484068000C0004E1690843A1494860A8
:100D8000FFF762FD054606E0FFF75EFD401B022807
:100D900001D9032045E79B480068012189020840EA
:100DA0000028F1D0002E18D1964800680721C9020A
:100DB0008843A169084393490860FFF7C1FE914940
:100DC00089680F2212021140090A89008E4A515C7B
:100DD000C906C90EC8408D4908608D480068FFF7F4
:100DE00053FD002848D001201BE7606900282AD065
:100DF000844800680721C9028843A16908438149E2
:100E0000086008460068891508437E490860FFF7B6
:100E10001BFD054607E0FFF717FD401B022802D91E
:100E20000320FEE628E07748006801218902084097
:100E30000028F0D073484068000C0004E1690843C2
:100E40007049486018E06F480068FF21013188430D
:100E50006C490860FFF7F8FC054606E0FFF7F4FC74
:100E6000401B022801D90320DBE666480068012107
:100E7000890208400028F1D108212068084008288C
:100E800049D1604880683821084018280BD15D4856
:100E90004030006A0221084000283CD0206A002827
:100EA00039D10120BDE6206A00281AD055484030CB
:100EB000006A01210843534940310862FFF7C4FC2E
:100EC000054606E0FFF7C0FC401B022801D90320BD
:100ED000A7E64C484030006A022108400028F1D0C3
:100EE00019E048484030006A400840004549403118
:100EF0000862FFF7A9FC054606E0FFF7A5FC401BCA
:100F0000022801D903208CE63E484030006A0221C5
:100F100008400028F1D104212068084004287BD132
:100F200000200190374880683821084020280BD1E4
:100F300034484030C0690221084000286DD0E06884
:100F400000286AD101206CE62E48C06B010F0120F9
:100F50008843002810D000BF2A48C06B0121090730
:100F600008432849C8630846C06B0904084000903C
:100F700000BF00BF0120019026480068FF21013119
:100F80000840002816D1234800680843214908601A
:100F9000FFF75AFC054606E0FFF756FC401B022807
:100FA00001D903203DE61B480068FF2101310840BC
:100FB0000028F1D0E068002817D003210904206937
:100FC0000840002808D10F480069884301214904DE
:100FD00040180C49086108E00A4800690321090427
:100FE0008843216908430749086100BFE068012878
:100FF00014D104484030C0690121084301494031FF
:10100000C86127E000100240901B0008C0000020CB
:10101000CC0000200070004052E050E0E06805285D
:101020000CD16F48C069042108436D49C861084666
:10103000C069012108436A49C8610BE06848C0697A
:10104000400840006649C8610846C06904218843D9
:101050006349C86100BFE068002812D0FFF7F4FBC5
:10106000054607E0FFF7F0FB401B5E49884201D9C7
:101070000320D6E55A48C069022108400028F1D073
:1010800011E0FFF7E1FB054607E0FFF7DDFB401B42
:101090005449884201D90320C3E55148C06902215F
:1010A00008400028F1D10198012808D14C48403867
:1010B000C06B01210907884349494039C86300BF13
:1010C000606A002858D04648403880683821084077
:1010D000102875D0606A02284FD141484038006816
:1010E0000121090688433E4940390860FFF7ACFBFF
:1010F000054606E0FFF7A8FB401B022801D90320A4
:101100008FE537484038006801214906084000282B
:10111000F0D1A06A012800D100BFA06A002806D142
:1011200000F078FA3049884201D2012079E52C4854
:101130004038C06840084000A16A08432849403947
:10114000C86008460068012109060843244940395F
:101150000860FFF779FB054606E0FFF775FB401BCB
:10116000022801D903205CE51D48403800680121B0
:10117000490608400028F0D030E01948403800689F
:101180000121090688431649403908600846C068AD
:1011900040084000C860FFF757FB054606E0FFF730
:1011A00053FB401B022801D903203AE50C48403884
:1011B00000680121490608400028F0D10EE0FFE751
:1011C000606A012800D12CE505484038C768F90756
:1011D000C90FA06A814201D0012022E5002020E54C
:1011E00040100240881300000024F400042806D1B7
:1011F0000649096904221143044A116105E00349C3
:10120000096904229143014A1161704700E000E03E
:1012100070B504462546681E0949884201D9012057
:101220000CE0681E074948610321081F00F098F987
:1012300000200449886107200861002070BD00007B
:10124000FFFFFF0000E000E070B504460D461646C3
:1012500000BF3C20005D012801D1022070BD0121AA
:101260003C20015500BF02213D200155002E06D033
:10127000042E1BD0082E33D00C2E62D147E0294615
:10128000206800F0A7FA20688069082108432168D7
:10129000886120688069042188432168886120680A
:1012A000806929690843216888614BE029462068E4
:1012B00000F0DEFA206880690121C9020843216834
:1012C00088612068806901218902884321688861DA
:1012D000206880692969090208432168886131E032
:1012E0002946206800F01CFB2068C06908210843DB
:1012F0002168C8612068C069042188432168C861E9
:101300002068C069296908432168C8611AE0294634
:10131000206800F05BFB2068C0690121C902084316
:101320002168C8612068C069012189028843216859
:10133000C8612068C0692969090208432168C86139
:1013400000E000BF00BF01213D20015500BF00218A
:101350003C20015500BF002080E710B50446002C5A
:1013600001D1012010BD3D20005D002805D10021E4
:101370003C200155204600F00CF802213D2001558B
:10138000211D206800F0CCF901213D2001550020ED
:10139000E8E7704770B504460E46012231462068E2
:1013A00000F006FA12492068884207D011492068E7
:1013B000884203D010492068884201D1012000E012
:1013C0000020002806D02068406C0121C903084392
:1013D000216848642068806845076D0F062D05D098
:1013E000206800680121084321680860002070BD62
:1013F000002C0140004401400048014030B5044643
:101400000D4600222946206800F0D2F91F492068C5
:10141000884207D01E492068884203D01D492068B1
:10142000884201D1012000E00020002814D000BF34
:101430002068006A1849084000280CD12068006A1A
:1014400089100840002806D12068406C0121C9039A
:1014500088432168486400BF00BF2068006A0E49C5
:10146000084000280BD12068006A89100840002835
:1014700005D120680068400840002168086000BF6E
:1014800001213D200155002030BD0000002C01400D
:1014900000440140004801401111000000BFFEE778
:1014A00010B51348007B012821D100201049087392
:1014B000104800780A300F490870084600783C2828
:1014C00001D10020087000BF002000F089F8094811
:1014D00000780949486000220848FFF7B5FE002857
:1014E00001D0FEF792FE012000F07AF800BF10BD97
:1014F00030010020C600002014010020D40000208C
:1015000010B50446A1882068FFF794F9002814D18B
:10151000E088FA2822DCE088401CE080E0880A2885
:1015200003D1002020810120A072E088FA2815D183
:101530000120E0720020A07210E020890A280DDC52
:101540002089401C208120890A2807D10020E080C2
:10155000A07A012802D120730020A07210BD70472C
:1015600010B5002819DA1A4A03071B0F083B9B081D
:101570009B00D2588307DC0EFF23A3409A438B07BE
:101580001B0E8407E40EA3401A43114B0407240FDB
:10159000083CA408A4001A5118E00E4A03231B02B9
:1015A000D21883089B00D2588307DC0EFF23A34088
:1015B0009A438B071B0E8407E40EA3401A43054B86
:1015C000032424021B198408A4001A5110BD000032
:1015D0001CED00E000E100E010B5FFF7B1F910BD2F
:1015E00010B50446012C08D100210848FFF7D2FEAF
:1015F00000280AD0FEF709FE07E000210348FFF7A4
:10160000FDFE002801D0FEF700FE10BDD400002032
:101610007047000004484068072252031040410B05
:101620008800024A1058704700100240F01B000862
:101630007047000010B5FFF70DF907480078401C0F
:101640000549087008460078282804D10020087051
:1016500001200249087010BDC4000020C500002010
:1016600000B58FB02C2104A8FEF771FD002000907A
:101670000190029003900B200490FF20013009900C
:1016800000200A901048008AC004C00C0121C90340
:1016900008430B90002005900C9004A8FFF7BCFABB
:1016A000002801D0FEF7B1FD072000900020019036
:1016B0000290039000216846FFF752F9002801D0FC
:1016C000FEF7A3FD0FB000BD000FFF1F07484068E5
:1016D000000C0004012149034018054949680843EA
:1016E00002494860C80303498860704700100240FF
:1016F000000FFF1F00ED00E070B5FFF71BFA054675
:101700007D218901FEF7F4FC0446FFF781FD0420EA
:10171000FFF76CFD00221146501EFFF707F970BD60
:1017200010B502681D4B984202D01D4B984205D15E
:1017300070241346A3431A464B681A43174B98422A
:101740000BD0174B984208D0164B984205D0164B39
:10175000984202D0154B984206D103242402134626
:10176000A3431A46CB681A4380241346A3434C690B
:1017700023431A4602608B68C3620B688362074B7F
:10178000984205D0084B984202D0084B984201D1AC
:101790000B6903630123436110BD0000002C01406D
:1017A0000004004000200040004401400048014087
:1017B00070B5CD06ED0E0124AC402346046A9C436F
:1017C0000462046ACE06F60E1546B5402C43046248
:1017D00070BD000070B5056A6D086D000562026A93
:1017E0004368846970262546B5432C46A408A400A6
:1017F0000D682C4302261546B5432A468D682A43B8
:10180000184DA84200D107E0174DA84200D103E0CF
:10181000164DA8420AD100BF08261546B5432A46F0
:10182000CD682A4304261546B5432A460D4DA842E5
:1018300005D00D4DA84202D00C4DA8420CD1FF2678
:1018400001361D46B5432B4676001D46B5432B4653
:101850004D692B438D692B43436084614D6845631B
:10186000026270BD002C014000440140004801406C
:1018700070B5056A1026B5430562026A436884693B
:10188000072636032546B5432C4603263602254651
:10189000B5432C460D682D022C4320261546B54332
:1018A0002A468D682D012A431A4DA84200D107E02F
:1018B000194DA84200D100BF184DA8420BD10AE033
:1018C00080261546B5432A46CD682D012A43402679
:1018D0001546B5432A460F4DA84205D00E4DA842E5
:1018E00002D00E4DA8420ED10126B6021D46B543C8
:1018F0002B4676001D46B5432B464D69AD002B4364
:101900008D69AD002B43436084614D68856302623D
:1019100070BD0000002C014000440140004801401F
:1019200070B5056AFF260136B5430562026A436851
:10193000C46970262546B5432C46A408A4000D684A
:101940002C43012676021546B5432A468D682D02A2
:101950002A431B4DA84200D107E01A4DA84200D1EE
:1019600000BF194DA8420CD10BE00126F602154626
:10197000B5432A46CD682D022A4376101546B54355
:101980002A460F4DA84205D00E4DA84202D00E4D5A
:10199000A8420ED1012636031D46B5432B467600DC
:1019A0001D46B5432B464D692D012B438D692D01F5
:1019B0002B434360C4614D68C563026270BD000083
:1019C000002C0140004401400048014070B5056A08
:1019D00001263603B5430562046A4368C2690726D7
:1019E00036031546B5432A46032636021546B54347
:1019F0002A460D682D022A43012676032546B54363
:101A00002C468D682D032C430B4DA84205D00B4D61
:101A1000A84202D00A4DA84207D10126B6031D46AE
:101A2000B5432B464D69AD012B434360C2614D6800
:101A30000564046270BD0000002C014000440140B8
:101A40000048014008B500BF1A48C06B0221084396
:101A50001849C8630846C06B02210840009000BFC7
:101A600000BF15481549086064211448C160002072
:101A70001249486000211148016181604161816122
:101A8000FFF76BFC002801D0FEF7BFFB60200C497C
:101A90000860002088600861C86088614861012092
:101AA000486000220548FFF7CFFB002801D0FEF771
:101AB000ACFB08BD0010024000040040D400002030
:101AC0001401002030B47446641E2578641CAB42B7
:101AD00004D3635D5B00E31830BC18471D46F8E78C
:101AE00002E008C8121F08C1002AFAD170477047E7
:101AF000002001E001C1121F002AFBD17047000045
:101B0000FEF7B4FE1F48006A01218903084000283F
:101B100001D1FEF753FBFFF7A3FDFFF7EDFD00BF7B
:101B20000122402105200007FEF7B8FB164C0020DB
:101B300004E000212160241D411CC8B20328F8DB09
:101B4000052000071049091F08604020888000BF59
:101B500000BFFFF777FF0422114605200007FEF7BC
:101B60009DFB00BF0CE009480078012808D1002047
:101B7000064908700448001FFFF7C2FCFFF790FCFD
:101B8000F1E700000020024034010020C5000020E1
:101B90000000000000000000000000000000000045
:101BA0000000000000000000000000000000000035
:101BB000010000000200000003000000040000001B
:101BC00006000000070000000800000009000000F7
:101BD0000000000000000000000000000000000005
:101BE00001000000020000000300000004000000EB
:101BF00000093D0000127A000024F40040865101E3
:101C000000366E0100093D0000093D0000093D005D
:101C10001C0FFF1F300FFF1F440FFF1F580FFF1F28
:101C20006C0FFF1F1C0FFF1F1C0FFF1F1C0FFF1F40
:101C300000093D0000127A000024F40040865101A2
:101C400000366E01641C000800000020D400000073
:101C5000E01A0008381D0008D400002084040000A9
:101C6000F01A000800000000000000000000000062
:101C70000000000000000000000000000000000064
:101C80000000000000000000000000000000000054
:101C90000000000000000000000000000000000044
:101CA0000000000000000000000000000000000034
:101CB0000000000000000000000000000000000024
:101CC0000000000000000000000000000000000014
:101CD0000000000000000000000000000000000004
:101CE00000000000000000000000000000000000F4
:101CF00000000000000000000000000000000000E4
:101D000000000000000000000000000000000000D3
:101D100000000000000000000000000000000000C3
:101D20000000000000127A00000000000000000027
:081D30000400000001000000A6
:04000005080000C12E
:00000001FF
